{
  "contractName": "SayHi",
  "abi": [
    {
      "inputs": [],
      "stateMutability": "nonpayable",
      "type": "constructor"
    },
    {
      "anonymous": false,
      "inputs": [
        {
          "indexed": true,
          "internalType": "address",
          "name": "owner",
          "type": "address"
        },
        {
          "indexed": false,
          "internalType": "uint256",
          "name": "amount",
          "type": "uint256"
        }
      ],
      "name": "FundsWithdrawn",
      "type": "event"
    },
    {
      "anonymous": false,
      "inputs": [
        {
          "indexed": true,
          "internalType": "address",
          "name": "sender",
          "type": "address"
        },
        {
          "indexed": false,
          "internalType": "string",
          "name": "message",
          "type": "string"
        },
        {
          "indexed": false,
          "internalType": "uint256",
          "name": "amount",
          "type": "uint256"
        }
      ],
      "name": "MessageSent",
      "type": "event"
    },
    {
      "inputs": [
        {
          "internalType": "uint256",
          "name": "",
          "type": "uint256"
        }
      ],
      "name": "messages",
      "outputs": [
        {
          "internalType": "address",
          "name": "sender",
          "type": "address"
        },
        {
          "internalType": "string",
          "name": "content",
          "type": "string"
        },
        {
          "internalType": "uint256",
          "name": "timestamp",
          "type": "uint256"
        },
        {
          "internalType": "uint256",
          "name": "amount",
          "type": "uint256"
        }
      ],
      "stateMutability": "view",
      "type": "function",
      "constant": true
    },
    {
      "inputs": [],
      "name": "owner",
      "outputs": [
        {
          "internalType": "address",
          "name": "",
          "type": "address"
        }
      ],
      "stateMutability": "view",
      "type": "function",
      "constant": true
    },
    {
      "inputs": [],
      "name": "totalMessages",
      "outputs": [
        {
          "internalType": "uint256",
          "name": "",
          "type": "uint256"
        }
      ],
      "stateMutability": "view",
      "type": "function",
      "constant": true
    },
    {
      "inputs": [
        {
          "internalType": "string",
          "name": "_message",
          "type": "string"
        }
      ],
      "name": "sayHi",
      "outputs": [],
      "stateMutability": "payable",
      "type": "function",
      "payable": true
    },
    {
      "inputs": [
        {
          "internalType": "uint256",
          "name": "_index",
          "type": "uint256"
        }
      ],
      "name": "getMessage",
      "outputs": [
        {
          "internalType": "address",
          "name": "sender",
          "type": "address"
        },
        {
          "internalType": "string",
          "name": "content",
          "type": "string"
        },
        {
          "internalType": "uint256",
          "name": "timestamp",
          "type": "uint256"
        },
        {
          "internalType": "uint256",
          "name": "amount",
          "type": "uint256"
        }
      ],
      "stateMutability": "view",
      "type": "function",
      "constant": true
    },
    {
      "inputs": [],
      "name": "getLatestMessage",
      "outputs": [
        {
          "internalType": "address",
          "name": "sender",
          "type": "address"
        },
        {
          "internalType": "string",
          "name": "content",
          "type": "string"
        },
        {
          "internalType": "uint256",
          "name": "timestamp",
          "type": "uint256"
        },
        {
          "internalType": "uint256",
          "name": "amount",
          "type": "uint256"
        }
      ],
      "stateMutability": "view",
      "type": "function",
      "constant": true
    },
    {
      "inputs": [],
      "name": "getContractBalance",
      "outputs": [
        {
          "internalType": "uint256",
          "name": "",
          "type": "uint256"
        }
      ],
      "stateMutability": "view",
      "type": "function",
      "constant": true
    },
    {
      "inputs": [],
      "name": "withdraw",
      "outputs": [],
      "stateMutability": "nonpayable",
      "type": "function"
    },
    {
      "inputs": [],
      "name": "getTotalMessages",
      "outputs": [
        {
          "internalType": "uint256",
          "name": "",
          "type": "uint256"
        }
      ],
      "stateMutability": "view",
      "type": "function",
      "constant": true
    },
    {
      "inputs": [
        {
          "internalType": "address",
          "name": "_sender",
          "type": "address"
        }
      ],
      "name": "getSenderMessageCount",
      "outputs": [
        {
          "internalType": "uint256",
          "name": "",
          "type": "uint256"
        }
      ],
      "stateMutability": "view",
      "type": "function",
      "constant": true
    }
  ],
  "bytecode": "0x608060405234801561001057600080fd5b50336000806101000a81548173ffffffffffffffffffffffffffffffffffffffff021916908373ffffffffffffffffffffffffffffffffffffffff1602179055506000600181905550611507806100686000396000f3fe6080604052600436106100ae576000357c01000000000000000000000000000000000000000000000000000000009004806386f79edb1161007657806386f79edb1461019d5780638da5cb5b146101dd578063951166c014610208578063af6adf8b14610233578063fdd2732e1461024f576100ae565b80630d80fefd146100b3578063147e9108146100f35780633ccfd60b1461011e5780634b2bbb3c146101355780636f9fb98a14610172575b600080fd5b3480156100bf57600080fd5b506100da60048036038101906100d59190610a89565b61027d565b6040516100ea9493929190610b96565b60405180910390f35b3480156100ff57600080fd5b50610108610365565b6040516101159190610be2565b60405180910390f35b34801561012a57600080fd5b5061013361036f565b005b34801561014157600080fd5b5061015c60048036038101906101579190610c29565b61059b565b6040516101699190610be2565b60405180910390f35b34801561017e57600080fd5b50610187610656565b6040516101949190610be2565b60405180910390f35b3480156101a957600080fd5b506101c460048036038101906101bf9190610a89565b610675565b6040516101d49493929190610b96565b60405180910390f35b3480156101e957600080fd5b506101f2610814565b6040516101ff9190610c56565b60405180910390f35b34801561021457600080fd5b5061021d610838565b60405161022a9190610be2565b60405180910390f35b61024d60048036038101906102489190610da6565b61083e565b005b34801561025b57600080fd5b506102646109c8565b6040516102749493929190610b96565b60405180910390f35b6002818154811061028d57600080fd5b90600052602060002090600402016000915090508060000160009054906101000a900473ffffffffffffffffffffffffffffffffffffffff16908060010180546102d690610e1e565b80601f016020809104026020016040519081016040528092919081815260200182805461030290610e1e565b801561034f5780601f106103245761010080835404028352916020019161034f565b820191906000526020600020905b81548152906001019060200180831161033257829003601f168201915b5050505050908060020154908060030154905084565b6000600154905090565b60008054906101000a900473ffffffffffffffffffffffffffffffffffffffff1673ffffffffffffffffffffffffffffffffffffffff163373ffffffffffffffffffffffffffffffffffffffff16146103fd576040517f08c379a00000000000000000000000000000000000000000000000000000000081526004016103f490610ec1565b60405180910390fd5b60003073ffffffffffffffffffffffffffffffffffffffff163190506000811161045c576040517f08c379a000000000000000000000000000000000000000000000000000000000815260040161045390610f2d565b60405180910390fd5b60008060009054906101000a900473ffffffffffffffffffffffffffffffffffffffff1673ffffffffffffffffffffffffffffffffffffffff16826040516104a390610f7e565b60006040518083038185875af1925050503d80600081146104e0576040519150601f19603f3d011682016040523d82523d6000602084013e6104e5565b606091505b5050905080610529576040517f08c379a000000000000000000000000000000000000000000000000000000000815260040161052090610fdf565b60405180910390fd5b60008054906101000a900473ffffffffffffffffffffffffffffffffffffffff1673ffffffffffffffffffffffffffffffffffffffff167feaff4b37086828766ad3268786972c0cd24259d4c87a80f9d3963a3c3d999b0d8360405161058f9190610be2565b60405180910390a25050565b6000806000905060005b60028054905081101561064c578373ffffffffffffffffffffffffffffffffffffffff16600282815481106105dd576105dc610fff565b5b906000526020600020906004020160000160009054906101000a900473ffffffffffffffffffffffffffffffffffffffff1673ffffffffffffffffffffffffffffffffffffffff16036106395781806106359061105d565b9250505b80806106449061105d565b9150506105a5565b5080915050919050565b60003073ffffffffffffffffffffffffffffffffffffffff1631905090565b6000606060008060028054905085106106c3576040517f08c379a00000000000000000000000000000000000000000000000000000000081526004016106ba906110f1565b60405180910390fd5b6000600286815481106106d9576106d8610fff565b5b90600052602060002090600402016040518060800160405290816000820160009054906101000a900473ffffffffffffffffffffffffffffffffffffffff1673ffffffffffffffffffffffffffffffffffffffff1673ffffffffffffffffffffffffffffffffffffffff16815260200160018201805461075890610e1e565b80601f016020809104026020016040519081016040528092919081815260200182805461078490610e1e565b80156107d15780601f106107a6576101008083540402835291602001916107d1565b820191906000526020600020905b8154815290600101906020018083116107b457829003601f168201915b5050505050815260200160028201548152602001600382015481525050905080600001518160200151826040015183606001519450945094509450509193509193565b60008054906101000a900473ffffffffffffffffffffffffffffffffffffffff1681565b60015481565b6000815111610882576040517f08c379a00000000000000000000000000000000000000000000000000000000081526004016108799061115d565b60405180910390fd5b600060405180608001604052803373ffffffffffffffffffffffffffffffffffffffff168152602001838152602001428152602001348152509050600281908060018154018082558091505060019003906000526020600020906004020160009091909190915060008201518160000160006101000a81548173ffffffffffffffffffffffffffffffffffffffff021916908373ffffffffffffffffffffffffffffffffffffffff1602179055506020820151816001019081610945919061132f565b50604082015181600201556060820151816003015550506001600081548092919061096f9061105d565b91905055503373ffffffffffffffffffffffffffffffffffffffff167f4816bdd3b9d39acdd4da0ae7412d5523081e916c6a56e481063e475b86ef7c5b83346040516109bc929190611401565b60405180910390a25050565b60006060600080600060028054905011610a17576040517f08c379a0000000000000000000000000000000000000000000000000000000008152600401610a0e9061147d565b60405180910390fd5b610a316001600280549050610a2c919061149d565b610675565b935093509350935090919293565b6000604051905090565b600080fd5b600080fd5b6000819050919050565b610a6681610a53565b8114610a7157600080fd5b50565b600081359050610a8381610a5d565b92915050565b600060208284031215610a9f57610a9e610a49565b5b6000610aad84828501610a74565b91505092915050565b600073ffffffffffffffffffffffffffffffffffffffff82169050919050565b6000610ae182610ab6565b9050919050565b610af181610ad6565b82525050565b600081519050919050565b600082825260208201905092915050565b60005b83811015610b31578082015181840152602081019050610b16565b60008484015250505050565b6000601f19601f8301169050919050565b6000610b5982610af7565b610b638185610b02565b9350610b73818560208601610b13565b610b7c81610b3d565b840191505092915050565b610b9081610a53565b82525050565b6000608082019050610bab6000830187610ae8565b8181036020830152610bbd8186610b4e565b9050610bcc6040830185610b87565b610bd96060830184610b87565b95945050505050565b6000602082019050610bf76000830184610b87565b92915050565b610c0681610ad6565b8114610c1157600080fd5b50565b600081359050610c2381610bfd565b92915050565b600060208284031215610c3f57610c3e610a49565b5b6000610c4d84828501610c14565b91505092915050565b6000602082019050610c6b6000830184610ae8565b92915050565b600080fd5b600080fd5b7f4e487b7100000000000000000000000000000000000000000000000000000000600052604160045260246000fd5b610cb382610b3d565b810181811067ffffffffffffffff82111715610cd257610cd1610c7b565b5b80604052505050565b6000610ce5610a3f565b9050610cf18282610caa565b919050565b600067ffffffffffffffff821115610d1157610d10610c7b565b5b610d1a82610b3d565b9050602081019050919050565b82818337600083830152505050565b6000610d49610d4484610cf6565b610cdb565b905082815260208101848484011115610d6557610d64610c76565b5b610d70848285610d27565b509392505050565b600082601f830112610d8d57610d8c610c71565b5b8135610d9d848260208601610d36565b91505092915050565b600060208284031215610dbc57610dbb610a49565b5b600082013567ffffffffffffffff811115610dda57610dd9610a4e565b5b610de684828501610d78565b91505092915050565b7f4e487b7100000000000000000000000000000000000000000000000000000000600052602260045260246000fd5b60006002820490506001821680610e3657607f821691505b602082108103610e4957610e48610def565b5b50919050565b7f4f6e6c79206f776e65722063616e2063616c6c20746869732066756e6374696f60008201527f6e00000000000000000000000000000000000000000000000000000000000000602082015250565b6000610eab602183610b02565b9150610eb682610e4f565b604082019050919050565b60006020820190508181036000830152610eda81610e9e565b9050919050565b7f4e6f2066756e647320746f207769746864726177000000000000000000000000600082015250565b6000610f17601483610b02565b9150610f2282610ee1565b602082019050919050565b60006020820190508181036000830152610f4681610f0a565b9050919050565b600081905092915050565b50565b6000610f68600083610f4d565b9150610f7382610f58565b600082019050919050565b6000610f8982610f5b565b9150819050919050565b7f5769746864726177616c206661696c6564000000000000000000000000000000600082015250565b6000610fc9601183610b02565b9150610fd482610f93565b602082019050919050565b60006020820190508181036000830152610ff881610fbc565b9050919050565b7f4e487b7100000000000000000000000000000000000000000000000000000000600052603260045260246000fd5b7f4e487b7100000000000000000000000000000000000000000000000000000000600052601160045260246000fd5b600061106882610a53565b91507fffffffffffffffffffffffffffffffffffffffffffffffffffffffffffffffff820361109a5761109961102e565b5b600182019050919050565b7f4d65737361676520696e646578206f7574206f6620626f756e64730000000000600082015250565b60006110db601b83610b02565b91506110e6826110a5565b602082019050919050565b6000602082019050818103600083015261110a816110ce565b9050919050565b7f4d6573736167652063616e6e6f7420626520656d707479000000000000000000600082015250565b6000611147601783610b02565b915061115282611111565b602082019050919050565b600060208201905081810360008301526111768161113a565b9050919050565b60008190508160005260206000209050919050565b60006020601f8301049050919050565b60008160020a8302905092915050565b6000600883026111e27fffffffffffffffffffffffffffffffffffffffffffffffffffffffffffffffff826111a2565b6111ec86836111a2565b95508019841693508086168417925050509392505050565b6000819050919050565b600061122961122461121f84610a53565b611204565b610a53565b9050919050565b6000819050919050565b6112438361120e565b61125761124f82611230565b8484546111b2565b825550505050565b600090565b61126c61125f565b61127781848461123a565b505050565b5b8181101561129b57611290600082611264565b60018101905061127d565b5050565b601f8211156112e0576112b18161117d565b6112ba84611192565b810160208510156112c9578190505b6112dd6112d585611192565b83018261127c565b50505b505050565b60008160020a8304905092915050565b6000611306600019846008026112e5565b1980831691505092915050565b600061131f83836112f5565b9150826002028217905092915050565b61133882610af7565b67ffffffffffffffff81111561135157611350610c7b565b5b61135b8254610e1e565b61136682828561129f565b600060209050601f8311600181146113995760008415611387578287015190505b6113918582611313565b8655506113f9565b601f1984166113a78661117d565b60005b828110156113cf578489015182556001820191506020850194506020810190506113aa565b868310156113ec57848901516113e8601f8916826112f5565b8355505b6001600288020188555050505b505050505050565b6000604082019050818103600083015261141b8185610b4e565b905061142a6020830184610b87565b9392505050565b7f4e6f206d6573736167657320617661696c61626c650000000000000000000000600082015250565b6000611467601583610b02565b915061147282611431565b602082019050919050565b600060208201905081810360008301526114968161145a565b9050919050565b60006114a882610a53565b91506114b383610a53565b92508282039050818111156114cb576114ca61102e565b5b9291505056fea2646970667358221220100de8cf4f3e215446013a60033a5b2efe2a174d6942d537795262c39a2044a064736f6c63430008130033",
  "immutableReferences": {},
  "source": "// SPDX-License-Identifier: MIT\npragma solidity >=0.4.22 <0.9.0;\n\ncontract SayHi {\n    // \n    address public owner;\n    uint256 public totalMessages;\n    \n    // \n    event MessageSent(address indexed sender, string message, uint256 amount);\n    event FundsWithdrawn(address indexed owner, uint256 amount);\n    \n    // \n    struct Message {\n        address sender;\n        string content;\n        uint256 timestamp;\n        uint256 amount;\n    }\n    \n    // \n    Message[] public messages;\n    \n    // \n    modifier onlyOwner() {\n        require(msg.sender == owner, \"Only owner can call this function\");\n        _;\n    }\n    \n    // \n    constructor() {\n        owner = msg.sender;\n        totalMessages = 0;\n    }\n    \n    // Say Hi  - \n    function sayHi(string memory _message) public payable {\n        require(bytes(_message).length > 0, \"Message cannot be empty\");\n        \n        // \n        Message memory newMessage = Message({\n            sender: msg.sender,\n            content: _message,\n            timestamp: block.timestamp,\n            amount: msg.value\n        });\n        \n        // \n        messages.push(newMessage);\n        totalMessages++;\n        \n        // \n        emit MessageSent(msg.sender, _message, msg.value);\n    }\n    \n    // \n    function getMessage(uint256 _index) public view returns (\n        address sender,\n        string memory content,\n        uint256 timestamp,\n        uint256 amount\n    ) {\n        require(_index < messages.length, \"Message index out of bounds\");\n        Message memory message = messages[_index];\n        return (message.sender, message.content, message.timestamp, message.amount);\n    }\n    \n    // \n    function getLatestMessage() public view returns (\n        address sender,\n        string memory content,\n        uint256 timestamp,\n        uint256 amount\n    ) {\n        require(messages.length > 0, \"No messages available\");\n        return getMessage(messages.length - 1);\n    }\n    \n    // \n    function getContractBalance() public view returns (uint256) {\n        return address(this).balance;\n    }\n    \n    // \n    function withdraw() public onlyOwner {\n        uint256 balance = address(this).balance;\n        require(balance > 0, \"No funds to withdraw\");\n        \n        (bool success, ) = payable(owner).call{value: balance}(\"\");\n        require(success, \"Withdrawal failed\");\n        \n        emit FundsWithdrawn(owner, balance);\n    }\n    \n    // \n    function getTotalMessages() public view returns (uint256) {\n        return totalMessages;\n    }\n    \n    // \n    function getSenderMessageCount(address _sender) public view returns (uint256) {\n        uint256 count = 0;\n        for (uint256 i = 0; i < messages.length; i++) {\n            if (messages[i].sender == _sender) {\n                count++;\n            }\n        }\n        return count;\n    }\n}",
  "sourcePath": "/Users/huxihai/Desktop/my-projects/web3/curse32/my-truffle-demo/contracts/SayHi.sol",
  "compiler": {
    "name": "solc",
    "version": "0.8.19+commit.7dd6d404.Emscripten.clang"
  },
  "schemaVersion": "3.4.16",
  "updatedAt": "2025-05-25T00:19:15.621Z",
  "networkType": "ethereum",
  "devdoc": {
    "kind": "dev",
    "methods": {},
    "version": 1
  },
  "userdoc": {
    "kind": "user",
    "methods": {},
    "version": 1
  }
}